:1000000000308A00A1280000FF00030E8301A10038
:100010000A08A0008A010408A2007708A300780853
:10002000A4007908A5007A08A600831383128C30F7
:100030008400801D1D288C192E2822088400230886
:10004000F7002408F8002508F9002608FA0020081F
:100050008A00210E8300FF0E7F0E09008A110A120A
:1000600031288316941A3C288312A9018316141D83
:100070003C288312A917831683122908A90AAC0009
:100080002C087F3C031C752814138C1D452813086D
:100090001416AB002B0B5228C73083168600831230
:1000A00086155728C73083168600831286112B08C1
:1000B000023C031D6128C730831686008312061692
:1000C0006628C73083168600831206122B08033C6D
:1000D000031D7028C7308316860083128616752884
:1000E000C73083168600831286122C08803C031DBD
:1000F00086282808AD002D08930014168C1183164D
:1001000014188028F8018312141AF80A8C118A1125
:100110000A121D282A3084008313000803199E2820
:100120000130F800F701F70B9328F80B92284A30BA
:10013000F700F70B99289C28800B90288A110A1247
:10014000E72803081F398300FF30A700A7152708F9
:1001500083168700831227162708831687004630E8
:100160009300093083129400FF30831693003630D9
:100170008312940083161114031787111930031387
:100180009900A63098009030831298000330A9009F
:10019000831603170908C039890003131F129F1221
:1001A00000300317880083128701880189018313B7
:1001B000831603138C15C03083128B0461308316B1
:1001C0008F0090010F0864308312AA008A28C7307C
:1001D0008316860083128611831686008312061208
:1001E0008316860083128612061CF8280130A800A8
:1001F000861CFC280230A800061D00290330A80038
:04020000F42863007B
:04400E00E22FFF3F5F
:00000001FF
;PIC16F887
;CRC=4131  CREATED="08-abr.-21 13:36"
