:1000000000308A004E28000094138C1123089300BE
:100010000230941B12288C1D0B2800308316111BF4
:1000200001308312F80008008316111411181628E5
:1000300046308312A30004202108A3000420831665
:100040001115111921288312080014138316911514
:100050009119282877189112771C91161116111AE8
:100060002F2883121308F8008A110A128D282330D2
:1000700084008313000803194B280130F800F701AE
:10008000F70B4028F80B3F284A30F700F70B4628BB
:100090004928800B3D288A110A12C22803081F39FB
:1000A0008300FF30A000A01520088316870083126C
:1000B0002016200883168700093093002830831209
:1000C000940083169417141303170908C039890084
:1000D00003131F129F120030031788008312870139
:1000E0008801890183130313061C79280130A100BC
:1000F0001420861C7E280230A1001420061D8328AF
:100100000330A100142083161114111885284730DC
:100110008312A3000420F70125287808A200831683
:100120001115111991288312220B9C28C7308316B0
:10013000860083128615A128C73083168600831295
:1001400086112208023C031DAB28C73083168600A7
:1001500083120616B028C730831686008312061253
:100160002208033C031DBA28C73083168600831279
:100170008616BF28C7308316860083128612643025
:08018000A30037287428630076
:04400E00E12FFF3F60
:00000001FF
;PIC16F887
;CRC=658F  CREATED="08-abr.-21 12:58"
